:020000040000fa
:080000000002040000000000f2
:020000040000fa
:10000800a6020000a6020000a6020000a602000048
:10001800a6020000a6020000a6020000a602000038
:10002800a6020000a6020000a6020000f6020000d8
:10003800a6020000a6020000a6020000a602000018
:10004800a6020000a6020000a6020000a602000008
:10005800a6020000a6020000a6020000a6020000f8
:10006800a6020000a6020000a6020000100300007d
:10007800a6020000a6020000a6020000a6020000d8
:10008800a6020000a6020000a6020000a6020000c8
:10009800a6020000a6020000a6020000a6020000b8
:1000a800a6020000a6020000a6020000a6020000a8
:1000b800a6020000a6020000a6020000a602000098
:1000c800a6020000a6020000a6020000a602000088
:1000d800a6020000a6020000a6020000a602000078
:1000e800a6020000a6020000a6020000a602000068
:1000f800a6020000a6020000a6020000a602000058
:10010800a6020000a6020000a6020000a602000047
:10011800a6020000a6020000a6020000a602000037
:10012800a6020000a6020000a6020000a602000027
:10013800a6020000a6020000a6020000a602000017
:10014800a6020000a6020000a6020000a602000007
:10015800a6020000a6020000a6020000a6020000f7
:10016800a6020000a6020000a6020000a6020000e7
:10017800a6020000a6020000a6020000a6020000d7
:10018800a6020000a6020000a6020000a6020000c7
:10019800a6020000a6020000a6020000a6020000b7
:1001a800a6020000a6020000a6020000a6020000a7
:1001b800a6020000a6020000a6020000a602000097
:1001c800a6020000a6020000a6020000a602000087
:1001d800a6020000a6020000a6020000a602000077
:1001e800a6020000a6020000a6020000a602000067
:0801f800a6020000a6020000af
:020000040000fa
:10020800a6020000a6020000a6020000a602000046
:10021800a6020000a6020000a6020000a602000036
:10022800a6020000a6020000a6020000f6020000d6
:10023800a6020000a6020000a6020000a602000016
:10024800a6020000a6020000a6020000a602000006
:10025800a6020000a6020000a6020000a6020000f6
:10026800a6020000a6020000a6020000100300007b
:10027800a6020000a6020000a6020000a6020000d6
:10028800a6020000a6020000a6020000a6020000c6
:10029800a6020000a6020000a6020000a6020000b6
:1002a800a6020000a6020000a6020000a6020000a6
:1002b800a6020000a6020000a6020000a602000096
:1002c800a6020000a6020000a6020000a602000086
:1002d800a6020000a6020000a6020000a602000076
:1002e800a6020000a6020000a6020000a602000066
:1002f800a6020000a6020000a6020000a602000056
:10030800a6020000a6020000a6020000a602000045
:10031800a6020000a6020000a6020000a602000035
:10032800a6020000a6020000a6020000a602000025
:10033800a6020000a6020000a6020000a602000015
:10034800a6020000a6020000a6020000a602000005
:10035800a6020000a6020000a6020000a6020000f5
:10036800a6020000a6020000a6020000a6020000e5
:10037800a6020000a6020000a6020000a6020000d5
:10038800a6020000a6020000a6020000a6020000c5
:10039800a6020000a6020000a6020000a6020000b5
:1003a800a6020000a6020000a6020000a6020000a5
:1003b800a6020000a6020000a6020000a602000095
:1003c800a6020000a6020000a6020000a602000085
:1003d800a6020000a6020000a6020000a602000075
:1003e800a6020000a6020000a6020000a602000065
:0803f800a6020000a6020000ad
:020000040000fa
:100400004f8020000e7f22000e01880000000000b7
:10041000000020000000e000020032000001200087
:10042000200288000c000700e044200001002000aa
:1004300011000700000020000000e0000200320070
:100440000000020000000000aa02020000000000fc
:100450000040da000000fe004440a9000000200037
:100460000000e0000300320000002000a00188002e
:100470004440a80000000600910188008000780038
:100480000000eb0015003700e280400032a0b4000d
:100490009101ba00e280400032a0b4009102ba009b
:1004a000e280400032a0b4000002eb00472bde00e7
:1004b000f507b200602ce10004003a000059eb009f
:1004c0008301e900fdff3e00040037006128e100e0
:1004d000010032000082eb00040007001101ba00a5
:1004e0000200e000e8ff3a00000006003159ba00bf
:1004f0008301e9000c0032002159ba008301e900b0
:10050000080032000400e00003003a00e2804000ee
:1005100032a0b400f5ff370011d9ba008301e90019
:10052000faff3a008100e800e180400032a0b40008
:1005300000000600000000000000000000000000b5
:100540000000000000000000000000000040da0091
:040550000000fe00a9
:020000040000fa
:100554000000fa00b4000700c2000700bd00070055
:100564009660a8008660a9006360a80001003700b7
:100574000000000004408000050020003600200038
:1005840007002000860f5200878f5a00f8ff3e00b4
:10059400046001000300370006003700090037003b
:1005a4000c003700a43420001000200004000100d7
:1005b4000c003700a43420002000200004000100b7
:1005c40008003700a434200030002000040001009b
:1005d40004003700a434200040002000040001007f
:1005e40000000000e3ff3700841f78003400f800a7
:1005f40004002000a40188000000fa008460a9001f
:1006040005e1a90014002000144088000080fa00cd
:100614003400f9004f027800004006003600f8006c
:10062400809fbe00829fbe00849fbe00869fbe0046
:100634003400f80000002000a00188000000fa0047
:100644008660a9005516800004022000048262001e
:10065400e00f520003003a000439200004000100b6
:100664000300370005e1a900843a200004000100da
:100674000080fa003400f9004f03be004f02be00b0
:100684004f01be004f00be003600f90000400600d6
:100694000200fa00000f78001e027800e10f5200f9
:1006a40005003a00cd82a800cda2a800cdc2a800c2
:1006b400cde2a900170037001e027800e20f5200b5
:1006c40005003a00cd82a800cda2a800cdc2a900a1
:1006d400cde2a8000f0037001e027800e30f52009d
:1006e40005003a00cd82a800cda2a900cdc2a80081
:1006f400cde2a800070037001e027800e40f520084
:1007040004003a00cd82a900cda2a800cdc2a80061
:10071400cde2a8000080fa00000006000000fa0004
:1007240005e1a8000002eb000408880000000000b6
:10073400551680000402200004826200e00f52007b
:10074400fbff32000080fa00000006000000fa00ff
:1007540014408000e00f520018003a00044080006a
:10076400e00f520003003a00140020000440880007
:100774002900370004408000e10f520003003a00d2
:100784002400200004408800230037000440800037
:10079400e20f520003003a003400200004408800b5
:1007a4001d00370004408000e30f52001a003a0095
:1007b4000002eb000440880017003700044080006a
:1007c400e00f520003003a00340020000440880087
:1007d4001100370004408000e10f520003003a008a
:1007e4000002eb00044088000b0037000440800046
:1007f400e20f520003003a00140020000440880075
:100804000500370004408000e30f520002003a0064
:1008140024002000044088000002eb0014408800fb
:100824000080fa00000006000000fa00c982a90056
:10083400c9a2a900c9c2a900c9e2a900cd82a80021
:10084400cda2a800cdc2a800cde2a8000080fa0085
:10085400000006000000fa00c8a2a8000080fa0008
:10086400000006000000fa000002eb000408880003
:1008740004082700140888009460a8002408800055
:100884000440a0000450a000240888008460a9004b
:080894000080fa0000000600dc
:020000040000fa
:10089c000008000004000000000000000000000040
:020000040000fa
:020000040001f9
:0457f800ad7a000086
:020000040000fa
:020000040001f9
:0457fc003f3f00002b
:00000001FF
